:090DF500C2A5C2A4D2A5D2A42219
:100C56007E07EE3395E0C3648094804014C2A5A855
:100C660006EF088002C313D8FC1392A4D2A51E80F7
:010C7600E19C
:010C7700225A
:100BBF00E4FF7E07EE3395E0C3648094804017C254
:100BCF00A5D2A530A40DA8067401088002C333D89E
:060BDF00FC42071E80DE4F
:010BE50022ED
:030DC700120C56B5
:0A0DCA00C2A5D2A4D2A520A4FD22E8
:070E1000C2A5D2A4D2A52265
:0B0DE000C2A5C2A4D2A5C2A5D2A422C5
:100C0C008F3D8D3E8B3F120DFEAF3D120DC7AF3E9B
:100C1C00120DC7AF3F120C56120DCA120DF57F0AFA
:050C2C007E00020D082E
:040AF0008F458D465B
:100AF400120DFEAF45120C56120DCAAF46120C561B
:100B0400120DCA120DFEE5454401FF120C56120DDA
:100B1400CA120BBF8F47120E10120DF57F0A7E000A
:050B2400120D08AF47AF
:010B290022A9
:090DFE00C2A5D2A4D2A5C2A42210
:10098B0050415353204D41544348004F50454E2046
:10099B00444F4F520053455420594F55522050410C
:1009AB005353574F5244005052455353203D204B05
:1009BB0045590057524F4E47205041535300545204
:1009CB005920414741494E20003030300000000093
:0D09DB00000000000000000000000000000F
:1005F40078227C007D007BFF7A0979D47E007F0518
:100604001200D6E4F527F528F529F52A782B7C0085
:10061400FD7BFF7A0979D9FE7F051200D678307CFC
:10062400007D007BFF7A0979DE7E007F051200D60B
:1006340078357C007D007BFF7A0979E37E007F05B5
:100644001200D6C2B7120CB7120CD2120CED120A59
:1006540035120DEB120925120B94782B7C007D00CA
:100664001203A91208918B3A8A3B893CA801AC0277
:10067400AD037B007A00792B1202C08F2AEF702819
:100684007F01120D477BFF7A09798B120C317FC0F1
:10069400120D477BFF7A097996120C31120D797F7E
:1006A400D07E07120D0880ACA83CAC3BAD3A7B0071
:1006B4007A0079221202C08F2AEF70397F01120D5D
:1006C400477F80120D477BFF7A0979A0120C317F96
:1006D400C0120D477BFF7A0979B2120C317F907EEC
:1006E40001120D08120D5940FB1207398F27C2A7BA
:1006F400D2A70206587F01120D477F80120D477B57
:10070400FF7A0979BE120C317FC0120D477BFF7A44
:100714000979C9120C310529E5297002052824300C
:10072400FF120D35D2B7120D89C2B7AF29AE281208
:050734000C78020658DC
:0607F8008B488A49894A82
:1007FE00E4FFFEAB48AA49A94A8F828E83120115E7
:10080E006025AB4BAA4CA94D8F828E83120115FD2C
:10081E00AB48AA49A94A8F828E83120115B50507E6
:10082E000FBF00010E80CCAB4BAA4CA94D8F828E10
:10083E0083120115FDAB48AA49A94A8F828E8312F5
:10084E000115FCD3ED6480F8EC64809840057E00C1
:10085E007F0122AB4BAA4CA94D8F828E83120115BC
:10086E00FDAB48AA49A94A8F828E83120115FFC398
:10087E00ED6480F8EF64809850057EFF7FFF22E4E0
:02088E00FEFF6B
:010890002245
:100D35008F80D2A0C2A1D2A27F027E00120D08C26E
:020D4500A222E8
:100D47008F80C2A0C2A1D2A27F027E00120D08C26C
:020D5700A222D6
:100D21007F02120D477F38120D477F0E120D477F4C
:040D310001020D4767
:100C31008B458A468947AB45AA46A9471200FC6005
:100C4100130547E5477002054614F91200FCFF122F
:050C51000D3580E222D8
:100D0800D3EF9400EE9400400F7DFADDFE7DF7DD11
:080D1800FEEF1F70EB1E80E8E6
:010D200022B0
:100D69003738392F3435362A3132332D40303D2B3F
:090E0700C293C292C291C2902272
:100D590030940B309508309605309702D322C32280
:100739007F0A7E00120D08C290D293D292D29130D4
:100749009409309506309603209705E4F5448049CD
:10075900C291D293D292D2903094093095063096B4
:10076900032097057544018030C292D293D291D269
:100779009030940930950630960320970575440208
:100789008017C293D292D291D290309409309506B3
:10079900309603209703754403209405E4F54580BA
:1007A90013209505754501800B2096057545028036
:1007B900037545033094FD3095FA3096F73097F478
:1007C900AF44EF3395E0FEEF7802C333CE33CED892
:1007D900F92469F582740D3EF583AF45EF3395E051
:0E07E900FEE5822FF582E5833EF583E493FF63
:0107F70022DF
:03000300020AB33B
:100AB300C0E0C0F0C083C082C0D075D000C000C009
:100AC30001C002C003C004C005C006C007B2A31220
:100AD30003C6D007D006D005D004D003D002D0017E
:0D0AE300D000D0D0D082D083D0F0D0E0324F
:1009E800454E544552204F4C4420504153530050DB
:1009F800415353204D4154434800534554205552C8
:100A0800204E455720504153530050415353204ED8
:100A18004F54204D415443480054525920414741B6
:0D0A2800494E00000000000000000000002A
:1003C600E4F50A780D7C00FD7BFF7A0A792BFE7F27
:1003D600051200D678157C007D007BFF7A0A7930FD
:1003E6007E007F051200D6120D217F01120D477F78
:1003F60080120D477BFF7A0979E8120C31E4F50B80
:10040600AF0BEF3395E0FEC3EF9403EE6480948068
:100416005039120E07120D5940FB1207398F097415
:100426000D250BF8A609E50B24C0FF120D47AF09F1
:10043600120D357F647E00120D08E50B24C0FF12F5
:100446000D477F2A120D35050B80B5740D250BF867
:10045600E4F61209258F0AE50AB43105120A7580F9
:1004660012E50AB43205120B2A8008E50AB43309EC
:10047600120B5F8B128A138914780D7C007D00ABFA
:1004860012AA13A9141202C08F0C7F01120D477F06
:1004960080120D47AF0CEF3395E04F60030205C89D
:1004A6007F01120D477F80120D477BFF7A0979F78E
:1004B600120C317F907E01120D087F01120D477FCD
:1004C60080120D477BFF7A0A7902120C317FC01227
:1004D6000D47120E077F907E01120D08E50A24CE05
:1004E6006053147003020580240260030205F312B0
:1004F6000D5940FB1207398F08120D35AB087D03E5
:100506007FA0120C0C120E07120D5940FB12073970
:100516008F08120D35AB087D047FA0120C0C120E4D
:1005260007120D5940FB1207398F08120D35AB081B
:100536007D050205C3120D5940FB1207398F0812BB
:100546000D35AB087D087FA0120C0C120E07120D9C
:100556005940FB1207398F08120D35AB087D097F0C
:10056600A0120C0C120E07120D5940FB1207398F00
:1005760008120D35AB087D0A8043120D5940FB1257
:1005860007398F08120D35AB087D0D7FA0120C0CB4
:10059600120E07120D5940FB1207398F08120D353E
:1005A600AB087D0E7FA0120C0C120E07120D5940DF
:1005B600FB1207398F08120D35AB087D0F7FA0029D
:1005C6000C0C7F01120D477F80120D477BFF7A0AC4
:1005D6007912120C317FC0120D477BFF7A0A7921FE
:0D05E600120C317F907E01120D080203F00F
:0105F30022E5
:0F0DA9000000000000000000000000000000003B
:100A750078407C007D007BFF7A0D79A97E007F059B
:100A85001200D67D037FA0120AF08F407D047FA05F
:100A9500120AF08F417D057FA0120AF08F427B007C
:0D0AA5007A007940120C317B007A00794014
:010AB2002221
:100B2A0078407C007D007BFF7A0D79AE7E007F05E0
:100B3A001200D67D087FA0120AF08F407D097FA09F
:100B4A00120AF08F417D0A7FA0120AF08F427B00C1
:040B5A007A00794064
:010B5E002274
:100B5F0078407C007D007BFF7A0D79B37E007F05A6
:100B6F001200D67D0D7FA0120AF08F407D0E7FA060
:100B7F00120AF08F417D0F7FA0120AF08F427B0087
:040B8F007A0079402F
:010B9300223F
:100CB7007B307D037FA0120C0C7B307D047FA0125C
:0B0CC7000C0C7B317D057FA0020C0CA3
:100CD2007B307D087FA0120C0C7B317D097FA01236
:0B0CE2000C0C7B307D0A7FA0020C0C84
:100CED007B317D0D7FA0120C0C7B307D0E7FA01211
:0B0CFD000C0C7B307D0F7FA0020C0C64
:100C990053454C4543542049440046524F4D203159
:0E0CA9002032203300454E544552204944006D
:10092500E4F53D7F01120D477F80120D477BFF7A6D
:100935000C7999120C317FC0120D477BFF7A0C7927
:10094500A3120C317F847E03120D087F01120D471F
:100955007F80120D477BFF7A0C79AE120C317F64D4
:100965007E00120D08120E07120D5940FB120739B1
:100975008F3D7FC0120D47AF3D120D357FE87E03D9
:05098500120D08AF3D5A
:01098A00224A
:100B9400EF24CE600C14600E24027018120A7580C3
:100BA40008120B2A8003120B5F8B3D8A3E893F7F1C
:0A0BB40001120D47AB3DAA3EA93F18
:010BBE002214
:100BE60057454C434F4D4500454C454354524F4E97
:100BF600494320444F4F520020204C4F434B205333
:060C0600595354454D0056
:100A3500120D217F01120D477F84120D477BFF7A2E
:100A45000B79E6120C317FE87E03120D087F011247
:100A55000D477BFF7A0B79EE120C317FC0120D47E3
:100A65007BFF7A0B79FE120C317FE87E03020D08BD
:0A0DEB0075A881D2A8D2AFD28822E9
:100D7900D2B5C2B67FD07E07120D08C2B5C2B6225F
:100D8900C2B5D2B67FE87E03120D08C2B5C2B6223B
:100D9900454E544552205041535300000000000075
:10089100783D7C007D007BFF7A0D79A47E007F0589
:1008A1001200D6E4F543120D217F01120D477F801E
:1008B100120D477BFF7A0D7999120C317F647E000E
:1008C100120D087FC0120D47E4F542C3E5429403BF
:1008D100748094805039120E07120D5940FB120793
:1008E100398F43743D2542F8A643E54224C0FF12E7
:1008F1000D47AF43120D357F647E00120D08E542AE
:1009010024C0FF120D477F2A120D35054280BC74A9
:100911003D2542F8E4F67F2C7E01120D087B007A1A
:0309210000793D1D
:0109240022B0
:0F0DB800555220535954454D20424C4F434B0048
:100C7800EF64034E701A7F01120D477F80120D47F3
:100C88007BFF7A0D79B8120C317FD07E07120D08E0
:010C98002239
:03000000020DD41A
:0C0DD400787FE4F6D8FD75814D0205F42F
:10000600E709F608DFFA8046E709F208DFFA803EDC
:1000160088828C83E709F0A3DFFA8032E309F608C9
:10002600DFFA8078E309F208DFFA807088828C8331
:10003600E309F0A3DFFA806489828A83E0A3F608E5
:10004600DFFA805889828A83E0A3F208DFFA804CBF
:1000560080D280FA80C680D4806980F28033801096
:1000660080A680EA809A80A880DA80E280CA8033FF
:1000760089828A83ECFAE493A3C8C582C8CCC58377
:10008600CCF0A3C8C582C8CCC583CCDFE9DEE78047
:100096000D89828A83E493A3F608DFF9ECFAA9F0C6
:1000A600EDFB2289828A83ECFAE0A3C8C582C8CC1C
:1000B600C583CCF0A3C8C582C8CCC583CCDFEADE35
:1000C600E880DB89828A83E493A3F208DFF980CC97
:1000D60088F0EF60010E4E60C388F0ED2402B40490
:1000E6000050B9F582EB2402B4040050AF23234537
:0600F60082239000567306
:1000FC00BB010689828A83E0225002E722BBFE0202
:09010C00E32289828A83E4932234
:10011500BB010CE58229F582E5833AF583E022509F
:1001250006E92582F8E622BBFE06E92582F8E222E9
:0D013500E58229F582E5833AF583E4932203
:10014200E3F5F009E208B5F06D606B80F3E3F5F0DA
:1001520009E608B5F060605E80F387F009E608B54D
:10016200F054605280F487F009E208B5F048604626
:1001720080F488828C8387F009E0A3B5F03860367A
:1001820080F488828C8387F009E493A3B5F027601A
:100192002580F388828C83E3F5F009E0A3B5F0169D
:1001A200601480F388828C83E3F5F009E493A3B5AD
:1001B200F004600280F202026D808580E7808E800A
:1001C200D2803C8015806C807E809B80B5808B8045
:1001D200A1804F8070803A02027989828A83ECFA88
:1001E200E493F5F0A3C8C582C8CCC583CCE493A33D
:1001F200C8C582C8CCC583CCB5F070606E80E18979
:10020200828A83E493F5F0A3E208B5F05E605C8035
:10021200F289828A83E0F5F0A3E608B5F04D604BDF
:1002220080F389828A83E0F5F0A3E208B5F03C60AE
:100232003A80F389828A83E493F5F0A3E608B5F065
:100242002A602880F2805389828A83ECFAE493F54B
:10025200F0A3C8C582C8CCC583CCE0A3C8C582C8F8
:10026200CCC583CCB5F004600280E27FFFB5F0021A
:100272000F2240027F012289828A83ECFAE0F5F0A4
:10028200A3C8C582C8CCC583CCE0A3C8C582C8CCEC
:10029200C583CCB5F0D560D380E389828A83ECFA3A
:1002A200E0F5F0A3C8C582C8CCC583CCE493A3C84B
:1002B200C582C8CCC583CCB5F0B160AF80E288F00E
:1002C200ED2402B4040050A3F582EB2402B404002E
:0B02D200509923234582239001BB7349
:1002DD00E709F60870FA8046E709F20870FA803EE1
:1002ED0088828C83E709F0A370FA807EE309F60813
:1002FD0070FA8076E309F20870FA806E88828C833A
:10030D00E309F0A370FA806289828A83E0A3F6087C
:10031D0070FA805689828A83E0A3F20870FA804AC7
:10032D0080D280FA80C680D4806580F280318010C2
:10033D0080A680EA809A80A880DA80E280CA803127
:10034D0089828A83ECFAE493A3C8C582C8CCC5839D
:10035D00CCF0A3C8C582C8CCC583CC70E9800D890B
:10036D00828A83E493A3F60870F9ECFAA9F0EDFB09
:10037D002289828A83ECFAE0A3C8C582C8CCC583E2
:10038D00CCF0A3C8C582C8CCC583CC70EA80DD890A
:10039D00828A83E493A3F20870F980CE88F0ED246D
:1003AD0002B4040050C4F582EB2402B4040050BA28
:0903BD00232345822390032D73D4
:00000001FF
